:020000040802F0
:10000000403B002085B602088BB402088DB402087C
:1000100091B4020895B4020899B4020800000000E7
:100020000000000000000000000000009DB4020875
:100030009FB4020800000000A1B40208A3B40208A3
:100040009FB602089FB602089FB602089FB6020834
:100050009FB602089FB60208277D02089FB60208D5
:100060009FB602089FB60208837D02089FB6020869
:100070009FB602089FB602089FB602089FB6020804
:100080009FB602089FB60208ED7A02089FB60208E2
:100090009FB602089FB602089FB60208DD7D0208DF
:1000A0009FB602089FB602089FB602089FB60208D4
:1000B00059860208578702087D8702089FB6020802
:1000C0009FB602089FB602089FB602089FB60208B4
:1000D0009FB60208798102089FB602089FB60208FF
:1000E0009FB602089FB602089FB602089FB6020894
:1000F0009FB602089FB602089FB602089FB6020884
:100100009FB602089FB60208D38902089FB602086C
:100110001D8402089FB60208438802089FB60208A1
:100120009FB602089FB602089FB602089FB6020853
:10013000DFF80CD00EF096FC00480047450102089D
:10014000403B00202648274908600DF08DFB07F052
:100150004BFD07F0C7FC08F073FA07F0BFFF08F08B
:1001600008F907F04FFE48200DF0F6FB0DF012FDE8
:1001700000201D49087010211C480BF0E2FD0922E7
:100180001B494FF4C24007F04CFB05200DF017FC53
:1001900025E01848008808281DD2DFE800F0040791
:1001A0000A0D1013191609F003F815E009F09FF96C
:1001B00012E009F0A3F90FE009F026FB0CE009F0CA
:1001C00089FD09E00AF00EFD06E009F05DFE03E09E
:1001D00009F084FD00E000BF00BF07F06CFFD8E726
:1001E0000000020808ED00E0E400002000140140D7
:1001F000000000203400002010B502460B4600200D
:10020000002104E0545C0444E0B24C1CA1B29942C9
:10021000F8DBC0B210BD30B503460C4618460021CD
:1002200004E0655C0544E8B24D1CA9B29142F8DBDC
:10023000C0B230BD70B505460E46002400BF0CE0CC
:1002400000BF4021FE480DF08BF90028F9D0295D50
:10025000FB480DF017F9601C84B2B442F0DB70BDAE
:1002600070B505460E46002400BF0CE000BF4021DB
:10027000F4480DF075F90028F9D0295DF1480DF02A
:1002800001F9601C84B2B442F0DB70BD024600206C
:10029000002105E001238B40134003B102E0491C1B
:1002A0000329F7DB00BF21B1012904D0022906D1BF
:1002B00003E0012003E00A2001E0642000BF00BF4A
:1002C000704710B5044600BF4021DD480DF048F9E5
:1002D0000028F9D02146DA480DF0D4F810BD1CB53D
:1002E000044645208DF8000054208DF8010004F1EB
:1002F0003000C0B28DF8020003208DF80300042105
:100300006846FFF779FF8DF8040005216846FFF77E
:1003100091FF1CBD1CB5044646208DF800004E2000
:100320008DF80100002C03DD2B208DF8020007E082
:100330001CB920208DF8020002E02D208DF802006B
:10034000201E01DB014600E041423031C9B28DF888
:10035000031003208DF8040005216846FFF74CFFC9
:100360008DF8050006216846FFF764FF1CBD1CB52B
:10037000044646208DF800004F208DF8010004F15E
:100380003000C0B28DF8020003208DF80300042174
:100390006846FFF731FF8DF8040005216846FFF736
:1003A00049FF1CBD1CB5044650208DF800005220AA
:1003B0008DF8010004F13000C0B28DF80200032076
:1003C0008DF8030004216846FFF716FF8DF804003E
:1003D00005216846FFF72EFF1CBD1CB504465820BA
:1003E0008DF8000052208DF8010004F13000C0B2F9
:1003F0008DF8020003208DF8030004216846FFF702
:10040000FBFE8DF8040005216846FFF713FF1CBDB5
:100410002DE9F041044600208B4908808B49088073
:100420002046FFF7DAFF08F025F8064600252CE005
:1004300086480088012807D183480088012801D117
:10044000BDE8F0810020FBE708F014F807463946C4
:1004500030460DF0ECFA40F2DC51884205D92046D6
:10046000FFF7BBFF08F006F806463CB106F072F94C
:1004700010B106F04FF908B90320E1E701200DF0B3
:100480009EFA07F018FE681C85B241F2883085425A
:10049000CEDB0220D4E71CB5044646208DF80000D0
:1004A00053208DF80100642094FBF0F03030C0B28E
:1004B0008DF802000A2094FBF0F00A2190FBF1F283
:1004C00001FB12003030C0B28DF803000A2094FB0B
:1004D000F0F100FB11403030C0B28DF80400032071
:1004E0008DF8050006216846FFF786FE8DF80600A8
:1004F00007216846FFF79EFE1CBD0FB400B587B00C
:1005000044208DF8000046208DF8010020208DF851
:1005100002004B208DF8030056208DF80400BDF832
:100520002000642190FBF1F03030C0B28DF805005E
:10053000BDF820000A2190FBF1F090FBF1F201FBE5
:1005400012003030C0B28DF80600BDF8200090FBDC
:10055000F1F201FB12003030C0B28DF8070020200C
:100560008DF808004D208DF8090041208DF80A0013
:10057000BDF8220042F2107190FBF1F03030C0B2B1
:100580008DF80B00BDF822004FF47A7190FBF1F06A
:100590000A2190FBF1F201FB12003030C0B28DF85D
:1005A0000C00BDF82200642190FBF1F00A2190FBC1
:1005B000F1F201FB12003030C0B28DF80D00BDF831
:1005C000220090FBF1F090FBF1F201FB12003030C1
:1005D000C0B28DF80E00BDF8220090FBF1F201FBD5
:1005E00012003030C0B28DF80F0020208DF81000BE
:1005F0004D208DF8110053208DF8120014490998F0
:10060000B0FBF1F03030C0B28DF8130042F210713F
:100610000998B0FBF1F00A21B0FBF1F201FB1200E6
:1006200030308DF814004FF47A710998B0FBF1F076
:100630000A21B0FBF1F201FB120030300AE00000A9
:1006400000380140004C0040400000203E000020E7
:10065000A08601008DF8150064210998B0FBF1F027
:100660000A21B0FBF1F201FB120030308DF81600C8
:100670000998B0FBF1F0B0FBF1F201FB1200303051
:100680008DF817000998B0FBF1F201FB1200303031
:100690008DF8180030208DF8190003208DF81A000D
:1006A0001B216846FFF7A8FD8DF81B001C2168463A
:1006B000FFF7C0FD07B05DF814FB0FB400B587B0BD
:1006C00044208DF8000053208DF8010020208DF883
:1006D00002004B208DF8030056208DF80400BDF871
:1006E0002800642190FBF1F03030C0B28DF8050095
:1006F000BDF828000A2190FBF1F090FBF1F201FB1C
:1007000012003030C0B28DF80600BDF8280090FB12
:10071000F1F201FB12003030C0B28DF8070020204A
:100720008DF808004D208DF8090041208DF80A0051
:10073000BDF82A0042F2107190FBF1F03030C0B2E7
:100740008DF80B00BDF82A004FF47A7190FBF1F0A0
:100750000A2190FBF1F201FB12003030C0B28DF89B
:100760000C00BDF82A00642190FBF1F00A2190FBF7
:10077000F1F201FB12003030C0B28DF80D00BDF86F
:100780002A0090FBF1F090FBF1F201FB12003030F7
:10079000C0B28DF80E00BDF82A0090FBF1F201FB0B
:1007A00012003030C0B28DF80F0020208DF81000FC
:1007B0004D208DF8110053208DF81200FE490B9842
:1007C000B0FBF1F03030C0B28DF8130042F210717E
:1007D0000B98B0FBF1F00A21B0FBF1F201FB120023
:1007E00030308DF814004FF47A710B98B0FBF1F0B3
:1007F0000A21B0FBF1F201FB120030308DF8150038
:1008000064210B98B0FBF1F00A21B0FBF1F201FB7F
:10081000120030308DF816000B98B0FBF1F0B0FBF1
:10082000F1F201FB120030308DF817000B98B0FB8D
:10083000F1F201FB120030308DF8180030208DF8F5
:10084000190003208DF81A001B216846FFF7D4FC1D
:100850008DF81B001C216846FFF7ECFC07B05DF823
:1008600014FB0FB40EB544208DF8000054208DF811
:100870000100D1490A98B0FBF1F03030C0B28DF8D8
:10088000020042F210710A98B0FBF1F00A21B0FBAD
:10089000F1F201FB120030308DF803004FF47A7151
:1008A0000A98B0FBF1F00A21B0FBF1F201FB120053
:1008B00030308DF8040064210A98B0FBF1F00A2171
:1008C000B0FBF1F201FB120030308DF805000A9800
:1008D000B0FBF1F0B0FBF1F201FB120030308DF80B
:1008E00006000A98B0FBF1F201FB120030308DF8DF
:1008F000070030208DF8080003208DF809006846B5
:10090000FFF77AFC8DF80A000B216846FFF792FC8E
:1009100003B05DF814FB0FB41CB544208DF8000043
:1009200045208DF801009DF82C003030C0B28DF8C4
:10093000020003208DF8030004216846FFF75CFCE9
:100940008DF8040005216846FFF774FC1CBC5DF8B7
:1009500014FB1CB5044646208DF8000049208DF894
:100960000100642094FBF0F03030C0B28DF802003A
:100970000A2094FBF0F00A2190FBF1F201FB120037
:100980003030C0B28DF803000A2094FBF0F100FB78
:1009900011403030C0B28DF8040003208DF80500FE
:1009A00006216846FFF728FC8DF8060007216846F7
:1009B000FFF740FC1CBD1CB5044646208DF8000026
:1009C00050208DF8010004F13000C0B28DF8020013
:1009D00003208DF8030004216846FFF70DFC8DF815
:1009E000040005216846FFF725FC1CBD1CB5044624
:1009F00046208DF8000052208DF8010004F13000EF
:100A0000C0B28DF8020003208DF80300042168466F
:100A1000FFF7F2FB8DF8040005216846FFF70AFC9A
:100A20001CBD1CB5044653208DF8000054208DF8E1
:100A30000100642094FBF0F03030C0B28DF8020069
:100A40000A2094FBF0F00A2190FBF1F201FB120066
:100A50003030C0B28DF803000A2094FBF0F100FBA7
:100A600011403030C0B28DF8040003208DF805002D
:100A700006216846FFF7C0FB8DF80600072168468F
:100A8000FFF7D8FB1CBD3EB5044641208DF80000A1
:100A900054208DF801004948B4FBF0F03030C0B26A
:100AA0008DF802004448B4FBF0F00A21B0FBF1F2EB
:100AB00001FB120030308DF8030042F21070B4FBDD
:100AC000F0F0B0FBF1F201FB120030308DF80400C1
:100AD0004FF47A70B4FBF0F0B0FBF1F201FB1200BE
:100AE00030308DF805006420B4FBF0F0B0FBF1F27B
:100AF00001FB120030308DF806000A20B4FBF0F044
:100B0000B0FBF1F201FB120030308DF807000A2033
:100B1000B4FBF0F100FB114030308DF808000320E9
:100B20008DF809000A216846FFF766FB8DF80A0078
:100B30000B216846FFF77EFB3EBD1CB504464720EF
:100B40008DF8000052208DF801004FF47A7094FB6C
:100B5000F0F03030C0B28DF80200642094FBF0F069
:100B60000A2190FBF1F201FB12003030C0B28DF887
:100B700003000A2094FBF0F090FBF1F201FB12005D
:100B80003030C0B28DF804000A2094FBF0F100FB75
:100B900011403030C0B28DF8050003208DF80600FA
:100BA00007216846FFF728FB8DF8070008216846F3
:100BB000FFF740FB1CBD0000A086010040420F0073
:100BC0001CB5044657208DF8000053208DF8010015
:100BD00004F13000C0B28DF8020003208DF803004C
:100BE00004216846FFF708FB8DF8040005216846DC
:100BF000FFF720FB1CBD1CB504464B208DF8000000
:100C000056208DF80100642094FBF0F03030C0B223
:100C10008DF802000A2094FBF0F00A2190FBF1F21B
:100C200001FB12003030C0B28DF803000A2094FBA3
:100C3000F0F100FB11403030C0B28DF80400032009
:100C40008DF8050006216846FFF7D6FA8DF80600F4
:100C500007216846FFF7EEFA1CBD3EB504464D205D
:100C60008DF8000041208DF8010042F21070B4FBB5
:100C7000F0F03030C0B28DF802004FF47A70B4FB5F
:100C8000F0F00A21B0FBF1F201FB120030308DF8D8
:100C900003006420B4FBF0F0B0FBF1F201FB1200A2
:100CA00030308DF804000A20B4FBF0F0B0FBF1F214
:100CB00001FB120030308DF805000A20B4FBF0F182
:100CC00000FB114030308DF8060003208DF807003E
:100CD00008216846FFF790FA8DF808000921684658
:100CE000FFF7A8FA3EBD3EB5044641208DF800004E
:100CF00050208DF8010042F21070B4FBF0F030305B
:100D0000C0B28DF802004FF47A70B4FBF0F00A2103
:100D1000B0FBF1F201FB120030308DF803006420CB
:100D2000B4FBF0F0B0FBF1F201FB120030308DF8B3
:100D300004000A20B4FBF0F0B0FBF1F201FB12005A
:100D400030308DF805000A20B4FBF0F100FB1140B3
:100D500030308DF8060003208DF807000821684622
:100D6000FFF74AFA8DF8080009216846FFF762FA92
:100D70003EBD3EB504464D208DF8000053208DF851
:100D80000100FE48B4FBF0F03030C0B28DF8020034
:100D900042F21070B4FBF0F00A21B0FBF1F201FB5B
:100DA000120030308DF803004FF47A70B4FBF0F08D
:100DB000B0FBF1F201FB120030308DF8040064202A
:100DC000B4FBF0F0B0FBF1F201FB120030308DF813
:100DD00005000A20B4FBF0F0B0FBF1F201FB1200B9
:100DE00030308DF806000A20B4FBF0F100FB114012
:100DF00030308DF8070030208DF8080003208DF882
:100E000009000A216846FFF7F7F98DF80A000B215F
:100E10006846FFF70FFA3EBD3EB504464D208DF8FB
:100E2000000058208DF80100D448B4FBF0F03030B9
:100E3000C0B28DF8020042F21070B4FBF0F00A214B
:100E4000B0FBF1F201FB120030308DF803004FF4DB
:100E50007A70B4FBF0F0B0FBF1F201FB120030301D
:100E60008DF804006420B4FBF0F0B0FBF1F201FB5C
:100E7000120030308DF805000A20B4FBF0F0B0FB12
:100E8000F1F201FB120030308DF806000A20B4FBAD
:100E9000F0F100FB114030308DF8070003208DF891
:100EA000080009216846FFF7A7F98DF809000A2113
:100EB0006846FFF7BFF93EBD3EB5044644208DF8B5
:100EC000000043208DF8010042F2107094FBF0F016
:100ED0003030C0B28DF802004FF47A7094FBF0F01D
:100EE0000A2190FBF1F201FB12003030C0B28DF804
:100EF0000300642094FBF0F090FBF1F201FB120080
:100F00003030C0B28DF804000A2094FBF0F090FB62
:100F1000F1F201FB12003030C0B28DF805000A205A
:100F200094FBF0F100FB11403030C0B28DF80600A8
:100F300003208DF8070008216846FFF75DF98DF85A
:100F4000080009216846FFF775F93EBD1CB5044647
:100F50004C208DF8000054208DF8010004F1300081
:100F6000C0B28DF8020003208DF80300042168460A
:100F7000FFF742F98DF8040005216846FFF75AF99A
:100F80001CBD1CB5044644208DF8000042208DF89D
:100F9000010004F13000C0B28DF8020003208DF88A
:100FA000030004216846FFF727F98DF804000521A6
:100FB0006846FFF73FF91CBD1CB5044645208DF877
:100FC000000052208DF80100642094FBF0F03030D6
:100FD000C0B28DF802000A2094FBF0F00A2190FBC9
:100FE000F1F201FB12003030C0B28DF803000A208C
:100FF00094FBF0F100FB11403030C0B28DF80400DA
:1010000003208DF8050006216846FFF7F5F88DF8F6
:10101000060007216846FFF70DF91CBD1CB5044604
:1010200045208DF800004C208DF80100642094FBD1
:10103000F0F03030C0B28DF802000A2094FBF0F0DE
:101040000A2190FBF1F201FB12003030C0B28DF8A2
:1010500003000A2094FBF0F100FB11403030C0B2D5
:101060008DF8040003208DF8050006216846FFF77F
:10107000C3F88DF8060007216846FFF7DBF81CBDB2
:1010800010B53F488478312C03D101203D490880B8
:101090000AE0302C03D100203A49088004E03F2CBC
:1010A00002D07020FFF788FF36480088FFF783FCE6
:1010B00010BD10B532488478312C03D1012032495B
:1010C00008800AE0302C03D100202F49088004E07A
:1010D0003F2C02D07020FFF76FFF2B480088FFF7EE
:1010E00085FC10BD0EB529480088042806D0244888
:1010F00080783F2802D07020FFF75EFF48208DF8EF
:10110000000045208DF80100214800884FF47A71D5
:1011100090FBF1F00A2190FBF1F201FB120030305C
:10112000C0B28DF802001A480088642190FBF1F0EB
:101130000A2190FBF1F201FB12003030C0B28DF8B1
:1011400003001348008890FBF1F090FBF1F201FBE3
:1011500012003030C0B28DF804000D48008890FBBA
:10116000F1F201FB12003030C0B28DF8050003200F
:101170008DF80600072168460CE00000A0860100FB
:10118000C80A0020580000205A0000203400002027
:1011900094000020FFF730F88DF80700082168461A
:1011A000FFF748F80EBD70B5F7488578F748008816
:1011B000022812D0F548008803280ED0F348008892
:1011C00004280AD03F2D03D07020FFF7F5FE04E07D
:1011D000EF4804882046FFF76FFE70BD10B5ED485C
:1011E0000088FFF7C4F810BD2DE9F041E648C47847
:1011F0000127E9480088C0EB0011E84800EB8100B6
:10120000C089401E86B2E1480088022854D0DF48D9
:101210000088032850D0DD48008804284CD0DA48E4
:1012200080783F2848D0D8488078202803D10020F3
:10123000DB49088040E0D44880782B281BD1A4F1FA
:10124000300084B2042C37DCE01D85B206EB86004A
:10125000C0EBC611D34800EB410007EBC70101EB1F
:10126000471100EB4100243030F8150020B320B2C4
:10127000CB49088020E0C44880782D281CD1A4F1F7
:10128000300084B2042C17DCC4F1080085B206EBF0
:101290008600C0EBC611C34800EB410007EBC70155
:1012A00001EB471100EB4100243030F8150018B174
:1012B000604200B2BA490880B948B0F90000FFF7AF
:1012C00029F8BDE8F08110B5B0480088022839D06F
:1012D000AE480088032835D0AC480088042831D0B7
:1012E000A94880783F282DD0A7488078312807D09A
:1012F000A548C078312803D0A3480079312812D1FD
:10130000A14880783038642148439F49C9783039F2
:1013100001EB810100EB41009B4909790844303819
:10132000A14908800EE09848807830280AD1964874
:10133000C078302806D194480079302802D10020A6
:101340009949088098480088FFF703FB10BD0146C3
:101350000020012904D00A2904D0642906D103E021
:10136000012003E0022001E0042000BF00BF70471D
:1013700010B500242046FFF78EF810BD10B50246C8
:10138000002000210BE001238B40134033B1C1F159
:1013900006040123A340034398B202E0491C0B2931
:1013A000F1DB00BF10BD10B580480088FFF79BFC43
:1013B00010BD10B57E480068FFF765FB10BD1CB579
:1013C00050208DF800004B208DF8010079480088EE
:1013D0004FF47A7190FBF1F03030C0B28DF802001A
:1013E00074480088642190FBF1F00A2190FBF1F22F
:1013F00001FB12003030C0B28DF803006D48008848
:1014000090FBF1F090FBF1F201FB12003030C0B222
:101410008DF804006748008890FBF1F201FB120090
:101420003030C0B28DF8050003208DF8060007218A
:101430006846FEF7E1FE8DF8070008216846FEF7D2
:10144000F9FE1CBD10B5504880783F2804D15A4899
:101450000088FFF7B5FB10BD4C480088022807D074
:101460004A480088032803D048480088042803D14C
:101470006F20FFF7A1FDEEE743488078312803D0C5
:1014800041488078322805D13F48807830384A4931
:10149000088002E07020FFF78FFD47480088FFF7C3
:1014A0008FFB00BFD7E710B58CB02C2243A101A859
:1014B0000CF030FF00242AE001A8005D3F280AD18B
:1014C0003148005D302803DB2F48005D39281CDDE2
:1014D00000200CB010BD01A8005D23280DD12A48C2
:1014E000005D2B2811D02848005D2D280DD02648FE
:1014F000005D402809D00020EBE72348005D01A9EA
:10150000095D884201D00020E3E7601C84B22B2CE7
:10151000D2DB0120DDE770B5034614460868984227
:1015200002D90868C01A01E00868181A06460122A4
:1015300011E051F82200984203D951F82200C01A54
:1015400002E051F82200181A0546B54200D904E01D
:101550002E46501C82B2A242EBDB00BF501E80B26E
:1015600070BD10B503460C46002106E054F821007A
:10157000984200D303E0481C81B29142F6DB00BFE1
:10158000501E884230DA30E0C80A002034000020C3
:10159000CE0000208A00002088000020800D00205E
:1015A0008E000020E81000208C0000207E0000202B
:1015B000740000207C0000205C000020504120547A
:1015C0004D3F20464F3F204B563F3F3F204D413F30
:1015D0003F3F3F3F204D533F3F3F3F3F3F3F204D29
:1015E000583F3F3F3F3F3F00084680B210BD10B517
:1015F00003460C46511E05E054F82100984200D8DD
:1016000002E0491E0029F7DA00BF002901DC0020B2
:1016100000E0084680B210BD0EB547208DF80000EE
:1016200052208DF80100FE4800788DF80200FC4839
:1016300040788DF80300FA4880788DF80400F84867
:10164000C0788DF80500F64800798DF80600032073
:101650008DF8070008216846FEF7CEFD8DF80800DA
:1016600009216846FEF7E6FD0EBD10B5ED4800887D
:10167000022855D0EB480088032851D0E94800885B
:1016800004284DD0E84880783F2849D0E648807843
:10169000302813D0E448807831280FD0E248807891
:1016A00032280BD0E0488078332807D0DE48807895
:1016B000342803D0DC488078352831D1DA48807866
:1016C0003038DA490880D8488078312828D1D8487D
:1016D0000088062823DD0620D54908801120D54939
:1016E0000880D548D249098850F82100D349D14A09
:1016F000128851F8221048434FF47A71B0FBF1F48C
:101700002A22CF492046FFF706FFCE490880CE485F
:101710000088FFF7A2FACD480068FFF72AFB00BF58
:10172000C2480088FEF7DBFD10BD00B589B0BD489A
:10173000008803287ED0BB4800880428FAD04B20BC
:101740008DF8000056208DF80100C1480088642102
:1017500090FBF1F03030C0B28DF80200BC48008838
:101760000A2190FBF1F090FBF1F201FB1200303006
:10177000C0B28DF80300B648008890FBF1F201FB7F
:1017800012003030C0B28DF8040020208DF8050022
:101790004D208DF8060041208DF80700A648AD4980
:1017A000098850F8210042F21071B0FBF1F030309E
:1017B000C0B28DF80800A048A649098850F8210059
:1017C0004FF47A71B0FBF1F00A21B0FBF1F201FBAA
:1017D000120030308DF8090097489E49098850F86A
:1017E00021006421B0FBF1F00A21B0FBF1F201FB12
:1017F000120030308DF80A008F489649098850F859
:1018000021000A21B0FBF1F0B0FBF1F201FB120064
:1018100030308DF80B0088488E49098850F8210037
:101820000A21B0FBF1F201FB120030308DF80C0000
:10183000202000E0E1E08DF80D004D208DF80E0035
:1018400053208DF80F007D488349098850F8210006
:101850008249B0FBF1F03030C0B28DF8100077480B
:101860007D49098850F821007D49B0FBF1F00A213B
:10187000B0FBF1F201FB120030308DF811006F481F
:101880007549098850F8210042F21071B0FBF1F05F
:101890000A21B0FBF1F201FB120030308DF812008A
:1018A00066486D49098850F821004FF47A71B0FB01
:1018B000F1F00A21B0FBF1F201FB120030308DF89B
:1018C00013005E486449098850F821006421B0FB88
:1018D000F1F00A21B0FBF1F201FB120030308DF87B
:1018E000140056485C49098850F821000A21B0FBD1
:1018F000F1F0B0FBF1F201FB120030308DF8150071
:101900004E485549098850F821000A21B0FBF1F2F0
:1019100001FB120030308DF8160020208DF81700E2
:101920004D208DF8180058208DF8190044484D4975
:10193000098850F821004A49B0FBF1F03030C0B2BC
:101940008DF81A003E484749098850F8210042F2B4
:101950001071B0FBF1F00A21B0FBF1F201FB1200B3
:1019600030308DF81B0036483E49098850F8210078
:101970004FF47A71B0FBF1F00A21B0FBF1F201FBF8
:10198000120030308DF81C002D483649098850F877
:1019900021006421B0FBF1F00A21B0FBF1F201FB60
:1019A000120030308DF81D0025482E49098850F866
:1019B00021000A21B0FBF1F0B0FBF1F201FB1200B3
:1019C00030308DF81E001E482649098850F8210045
:1019D0000A21B0FBF1F201FB120030308DF81F003C
:1019E00003208DF8200021216846FEF705FC8DF8C4
:1019F000210022216846FEF71DFC09B000BD00B59C
:101A00008BB00848008803287DD006480088042849
:101A1000FAD054208DF8000055208DF8010023E005
:101A20004CEF020834000020C80A00208400002087
:101A3000AA000020AC00002054EF020890EF02083A
:101A400004F00208AE000020A2000020A400002044
:101A5000A00000206E0000207000002040420F0017
:101A6000A086010072000020FE4800883030C0B21D
:101A70008DF8020020208DF8030057208DF8040017
:101A800053208DF80500F84800883130C0B28DF839
:101A9000060020208DF8070046208DF808004F2012
:101AA0008DF80900F14800883030C0B28DF80A0086
:101AB00020208DF80B0045208DF80C0054208DF867
:101AC0000D00EB4800883030C0B28DF80E002020A9
:101AD0008DF80F0046208DF8100049208DF8110078
:101AE00030208DF812008DF813008DF8140020209E
:101AF0008DF8150046208DF8160053208DF817003C
:101B00000020642100E078E090FBF1F13031C9B2AF
:101B10008DF818100A2190FBF1F10A2291FBF2F3E3
:101B200002FB13113031C9B28DF819100A2190FB54
:101B3000F1F201FB12013031C9B28DF81A102020E8
:101B40008DF81B0046208DF81C004E208DF81D00DE
:101B5000C848B0F90000002803DD2B208DF81E00D6
:101B600009E0C448008818B920208DF81E0002E062
:101B70002D208DF81E00BF49B1F90000002801DBBF
:101B8000014600E041423031C9B28DF81F102020DB
:101B90008DF8200048208DF8210045208DF8220086
:101BA000B5480088642190FBF1F03030C0B28DF868
:101BB0002300B14800880A2190FBF1F090FBF1F27C
:101BC00001FB12003030C0B28DF82400AA48008812
:101BD00090FBF1F201FB12003030C0B28DF825000D
:101BE00003208DF8260027216846FEF705FB8DF8B7
:101BF000270028216846FEF71DFB0BB000BD10B57D
:101C000000249E48008806F0B9FF04462046FEF7EF
:101C100008FF10BD1CB59A48847845208DF8000057
:101C200043208DF801008DF8024003208DF8030059
:101C300004216846FEF7E0FA8DF8040005216846A5
:101C4000FEF7F8FA1CBD1CB58D4884784B208DF842
:101C5000000054208DF801008DF8024003208DF81B
:101C6000030004216846FEF7C7FA8DF804001CBD86
:101C70002DE9F04783480088292806DC8248D0F8FF
:101C8000A40082490988884213D229207D4908800E
:101C90007D48B0F8A4007D4908806820FFF78CF9E2
:101CA0007949784A128851F82200FFF7B5F8BDE863
:101CB000F0877448008804B270480088022807D072
:101CC0006E480088032803D06C48008804280AD195
:101CD0006F20FFF771F96C496A4A128851F82200A7
:101CE000FFF79AF8E3E7664880783F2807D166490E
:101CF000644A128851F82200FFF78EF8D7E760484F
:101D000080782B2821D16248008829280AD16820B0
:101D1000FFF752F95C495B4A128851F82200FFF73D
:101D20007BF8C4E75648C0782B2802D1601D04B266
:101D300001E0601C04B2292C01DC204600E02920CF
:101D40000446514850F82460C0E04D4880782D2862
:101D500020D14C48008850B96820FFF72DF94A4936
:101D6000484A128851F82200FFF756F89FE7444886
:101D7000C0782D2802D1601F04B201E0601E04B2B9
:101D8000002C01DB204600E0002004463E4850F8CD
:101D900024609BE03A488078302862DB38488078BD
:101DA00039285EDC3648C07830285ADB3448C078A1
:101DB000392856DC3248007930287CDB30480079FD
:101DC000392878DC2E484079302874DB2C4840795B
:101DD000392870DC2A48807930286CDB28488079E3
:101DE000392868DC2648C079302864DB2448C0796B
:101DF000392860DC22488078303826494143204821
:101E0000C078303840F27122504301EB00111C4879
:101E10000079303800EB4002C2EBC01001EBC0018A
:101E200017484079303800EBC00202EB001001EB9C
:101E3000800113488079303800EB800001EB4001CD
:101E40000F48C07930380E180F480068B04204D8E7
:101E50000D48D0F8A400B04226D26820FFF7ACF8B5
:101E60001AE028E086000020880000208A00002078
:101E7000840000208E000020940000203400002008
:101E8000C80A0020AE00002004F00208A8000020CC
:101E900072000020A0860100FC49FD4A128851F81A
:101EA0002200FEF7B9FF02E72A22F8493046FFF781
:101EB00032FB04B20AE07020FFF77EF8F349F44ADF
:101EC000128851F82200FEF7A7FFF0E6292C01DC6A
:101ED000002C0ADA6820FFF76FF8EC49EC4A128808
:101EE00051F82200FEF798FFE1E60E252DE0E748C5
:101EF00050F824004FF47A714843E64951F8251010
:101F0000B0FBF1F087B2E448006FB84203D3E24877
:101F10000068B84200D916E000223946DF48008840
:101F200004F096F981460F22DA494846FFF75FFB35
:101F30008046D84850F82510024652F828008142C1
:101F400000D804E000BF681E05B2002DCFDA00BF44
:101F5000002D0ADA6820FFF72FF8CC49CC4A128806
:101F600051F82200FEF758FFA1E6CD490D80C9487F
:101F700030F82500CB4908801D22C7493846FFF7B5
:101F8000CAFAC9490880C448098850F82100C749DD
:101F90000860BF490C80BD48098830F82100C44959
:101FA0000880C0480088FEF758FEC0480068FEF769
:101FB000E0FEBF480088FEF72FFF00BF77E610B5B0
:101FC000BC4BB3F8763264246343672463436424D0
:101FD000B3FBF4F1AD4BD3F8A4306724634364241E
:101FE000B3FBF4F2914201D20B4600E013461846CF
:101FF00010BDB04BB3F87412A44B1A68914201D9CA
:102000000B4600E013461846704770B5A648008896
:1020100004B2A6480568A8480088022807D0A64848
:102020000088032803D0A4480088042807D16F2023
:10203000FEF7C2FF9D480068FEF79BFE70BD9F48FB
:1020400080783F2804D199480068FEF792FEF5E7B2
:102050009A4880782B281CD11C2C07DB6720FEF7C0
:10206000ABFF92480068FEF784FEE7E79348C0782C
:102070002B2802D1601D04B201E0601C04B21C2CAC
:1020800001DC204600E01C200446834850F8245020
:10209000AFE08A4880782D281ED183480088002828
:1020A00007DC6720FEF788FF80480068FEF761FEC6
:1020B000C4E78248C0782D2802D1601F04B201E035
:1020C000601E04B2002C01DB204600E00020044624
:1020D000714850F824508CE078488078302878DBBC
:1020E0007648807839287CDC7448C078302878DBE2
:1020F0007248C078392874DC70480079302870DB69
:102100006E48007939286CDC6C484079302868DBEF
:102110006A484079392864DC68488079302860DB77
:102120006648807939285CDC6448C079302858DBFF
:102130006248C079392854DC6048007A302850DB86
:102140005E48007A39284CDC5C48807830385C493D
:1021500041435A48C078303840F63542504301EB8D
:10216000401156480079303840F27122504301EB5B
:10217000001152484079303800EB4002C2EBC010E9
:1021800001EBC0014D488079303800EBC00202EB12
:10219000001001EB80014948C079303800EB800025
:1021A00001EB40014548007A30380D180A20B5FB94
:1021B000F0F539480068A84203D83748006FA842B4
:1021C00008D26720FEF7F8FE38480068FEF7D1FD18
:1021D00034E706E01D2230492846FFF79CF904B297
:1021E00007E06F20FEF7E8FE30480068FEF7C1FD0B
:1021F00024E72E4805602C490C800068FEF7B9FDE5
:1022000000BF1BE7F0B58DB00024002500262A484A
:102210000088012858D028480088072854D06F200B
:10222000FEF7CAFE27480088ADF81400254840880C
:10223000ADF8160023484068069022480089ADF8A2
:102240001C0020484189ADF81E10C1680891006942
:1022500009901C48017D05A801751A48417D05A813
:1022600041751848817D05A88175164880690B90D5
:102270001448007F8DF8300009A80FC88DE80F00C2
:1022800005A80FC8FEF739F90DB0F0BD04F002083B
:10229000AE00002054EF020890EF0208A0000020DA
:1022A000AA000020A2000020AC000020A400002012
:1022B000A8000020080B002034000020C80A0020DD
:1022C00040420F00EC1A0020FE4880783F2833D1AE
:1022D000FD480088ADF81400FB484088ADF81600B2
:1022E000F94840680690F8480089ADF81C00F648A7
:1022F0004189ADF81E10C168089100690990F24843
:10230000017D05A80175F048417D05A84175EE489D
:10231000817D05A88175EC4880690B90EA48007FB3
:102320008DF8300009A80FC88DE80F0005A80FC868
:10233000FEF7E3F80DB0F0BDE2484079302803DB4A
:10234000E0484079392835DD7020FEF735FEDE485B
:102350000088ADF81400DC484088ADF81600DA4873
:1023600040680690D8480089ADF81C00D6484189DD
:10237000ADF81E10C168089100690990D248017D2E
:1023800005A80175D048417D05A84175CE48817DDD
:1023900005A88175CC4880690B90CB48007F8DF8EB
:1023A000300009A80FC88DE80F0005A80FC8FEF778
:1023B000A4F8BFE7C3488079302803DBC14880799F
:1023C000392835DD7020FEF7F7FDBF480088ADF8ED
:1023D0001400BD484088ADF81600BB484068069020
:1023E000B9480089ADF81C00B7484189ADF81E1006
:1023F000C168089100690990B348017D05A801757D
:10240000B148417D05A84175AF48817D05A881751A
:10241000AD4880690B90AC48007F8DF8300009A86A
:102420000FC88DE80F0005A80FC8FEF766F881E712
:10243000A448C079302803DBA248C079392835DDAB
:102440007020FEF7B9FDA0480088ADF814009E4842
:102450004088ADF816009C48406806909A4800896C
:10246000ADF81C0098484189ADF81E10C16808916C
:10247000006909909448017D05A801759248417D45
:1024800005A841759048817D05A881758E488069B1
:102490000B908D48007F8DF8300009A80FC88DE89B
:1024A0000F0005A80FC8FEF728F843E78548C07A53
:1024B000302803DB8348C07A392835DD7020FEF7E9
:1024C0007BFD81480088ADF814007F484088ADF856
:1024D00016007D48406806907B480089ADF81C00D6
:1024E00079484189ADF81E10C168089100690990CA
:1024F0007548017D05A801757348417D05A84175A2
:102500007148817D05A881756F4880690B906E4880
:10251000007F8DF8300009A80FC88DE80F0005A8CE
:102520000FC8FDF7EAFF05E76648007B302803DBAC
:102530006448007B392835DD7020FEF73DFD624898
:102540000088ADF8140060484088ADF816005E4879
:10255000406806905C480089ADF81C005A484189E3
:10256000ADF81E10C1680891006909905648017DB8
:1025700005A801755448417D05A841755248817DE3
:1025800005A88175504880690B904F48007F8DF8F1
:10259000300009A80FC88DE80F0005A80FC8FDF787
:1025A000ACFFC7E64748407B302803DB4548407B0B
:1025B000392835DD7020FEF7FFFC43480088ADF870
:1025C000140041484088ADF816003F484068069026
:1025D0003D480089ADF81C003B484189ADF81E100C
:1025E000C1680891006909903748017D05A8017507
:1025F0003548417D05A841753348817D05A8817521
:10260000314880690B903048007F8DF8300009A870
:102610000FC88DE80F0005A80FC8FDF76EFF89E60B
:102620002848807B302803DB2648807B392835DD2D
:102630007020FEF7C1FC24480088ADF81400224841
:102640004088ADF816002048406806901E48008972
:10265000ADF81C001C484189ADF81E10C1680891F6
:10266000006909901848017D05A801751648417D4B
:1026700005A841751448817D05A8817512488069B7
:102680000B901148007F8DF8300009A80FC88DE825
:102690000F0005A80FC8FDF730FF4BE60948C07BC7
:1026A000302803DB0748C07B39283ADD7020FEF76D
:1026B00083FC05480088ADF8140003484088ADF855
:1026C000160003E0C80A0020EC1A0020FE4840680B
:1026D0000690FD480089ADF81C00FB484189ADF823
:1026E0001E10C168089100690990F748017D05A88E
:1026F0000175F548417D05A84175F348817D05A820
:102700008175F14880690B90EF48007F8DF83000AB
:1027100009A80FC88DE80F0005A80FC8FDF7EDFE4A
:1027200008E6EA48C07C302803DBE848C07C39284A
:1027300035DD7020FEF740FCE3480088ADF814005A
:10274000E1484088ADF81600DF4840680690DE4852
:102750000089ADF81C00DC484189ADF81E10C16845
:10276000089100690990D848017D05A80175D648EF
:10277000417D05A84175D448817D05A88175D24861
:1027800080690B90D048007F8DF8300009A80FC8F1
:102790008DE80F0005A80FC8FDF7AFFECAE5CB48CE
:1027A000007D302803DBC948007D392835DD7020E5
:1027B000FEF702FCC4480088ADF81400C248408807
:1027C000ADF81600C04840680690BF480089ADF8D3
:1027D0001C00BD484189ADF81E10C1680891006910
:1027E0000990B948017D05A80175B748417D05A844
:1027F0004175B548817D05A88175B34880690B9006
:10280000B148007F8DF8300009A80FC88DE80F008F
:1028100005A80FC8FDF771FE8CE5AC48407D302857
:1028200003DBAA48407D392835DD7020FEF7C4FB64
:10283000A5480088ADF81400A3484088ADF81600FC
:10284000A14840680690A0480089ADF81C009E4849
:102850004189ADF81E10C1680891006909909A4835
:10286000017D05A801759848417D05A841759648E8
:10287000817D05A88175944880690B909248007FFE
:102880008DF8300009A80FC88DE80F0005A80FC803
:10289000FDF733FE4EE58D48807D302803DB8B4805
:1028A000807D392835DD7020FEF786FB864800885C
:1028B000ADF8140084484088ADF81600824840689E
:1028C000069081480089ADF81C007F484189ADF829
:1028D0001E10C1680891006909907B48017D05A818
:1028E00001757948417D05A841757748817D05A826
:1028F0008175754880690B907348007F8DF83000B2
:1029000009A80FC88DE80F0005A80FC8FDF7F5FD51
:1029100010E56E48C07D302803DB6C48C07D392847
:1029200035DD7020FEF748FB67480088ADF81400DD
:1029300065484088ADF816006348406806906248D4
:102940000089ADF81C0060484189ADF81E10C168CF
:102950000891006909905C48017D05A801755A48F5
:10296000417D05A841755848817D05A88175564867
:1029700080690B905448007F8DF8300009A80FC87B
:102980008DE80F0005A80FC8FDF7B7FDD2E44F484A
:10299000007E302803DB4D48007E392835DD70206D
:1029A000FEF70AFB48480088ADF814004648408806
:1029B000ADF8160044484068069043480089ADF8D9
:1029C0001C0041484189ADF81E10C168089100699A
:1029D00009903D48017D05A801753B48417D05A84A
:1029E00041753948817D05A88175374880690B900C
:1029F0003548007F8DF8300009A80FC88DE80F001A
:102A000005A80FC8FDF779FD94E43048407E3028D2
:102A100003DB2E48407E392835DD7020FEF7CCFAE6
:102A200029480088ADF8140027484088ADF8160002
:102A300025484068069024480089ADF81C002248CB
:102A40004189ADF81E10C1680891006909901E48BF
:102A5000017D05A801751C48417D05A841751A48EE
:102A6000817D05A88175184880690B901648007F04
:102A70008DF8300009A80FC88DE80F0005A80FC811
:102A8000FDF73BFD56E41148407930386421484356
:102A90000E498979303901EB810100EB41010B4886
:102AA000C0793038084484B20848C07A303842F2DD
:102AB000107148430549097B303901EB4102C2EBF3
:102AC000C11100EBC10103E0EC1A0020C80A00208C
:102AD000FE48407B303800EBC00202EB001001EBF7
:102AE0008001FA48807B303800EB800001EB400128
:102AF000F648C07B3038084485B2F448C07C303892
:102B0000F3494143F148007D303840F2712250438F
:102B100001EB0011ED48407D303800EB4002C2EB84
:102B2000C01001EBC001E948807D303800EBC002E5
:102B300002EB001001EB8001E448C07D303800EB6F
:102B4000800001EB4001E148007E30380E18142768
:102B5000462C01DC282C03DA6520FEF72DFA15E05F
:102B6000DC48806BA84201D3BD4203D26620FEF749
:102B700023FA0BE0D848006FB04203D26720FEF77B
:102B80001BFA03E0D548048045804660D34800889E
:102B9000ADF81400D1484088ADF81600CF48406821
:102BA0000690CE480089ADF81C00CC484189ADF8AC
:102BB0001E10C168089100690990C848017D05A8E8
:102BC0000175C648417D05A84175C448817D05A8A9
:102BD0008175C24880690B90C048007F8DF8300035
:102BE00009A80FC88DE80F0005A80FC8FDF785FCE0
:102BF00000BF1CE4F0B58DB0002400250026B848C5
:102C0000008801283AD0B6480088072836D06F20BF
:102C1000FEF7D2F9B1480088ADF81400AF484088FB
:102C2000ADF81600AD4840680690AC480089ADF894
:102C30001C00AA484189ADF81E10C16808910069BE
:102C40000990A648017D05A80175A448417D05A805
:102C50004175A248817D05A88175A04880690B90C7
:102C60009E48007F8DF8300009A80FC88DE80F003E
:102C700005A80FC8FDF721FD0DB0F0BD9348807881
:102C80003F2832D195480088ADF814009348408819
:102C9000ADF8160091484068069090480089ADF85C
:102CA0001C008E484189ADF81E10C168089100696A
:102CB00009908A48017D05A801758848417D05A8CD
:102CC00041758648817D05A88175844880690B908F
:102CD0008248007F8DF8300009A80FC88DE80F00EA
:102CE00005A80FC8FDF7E9FCC6E778484079302809
:102CF00003DB76484079392835DD7020FEF75CF932
:102D000076480088ADF8140074484088ADF8160085
:102D100072484068069071480089ADF81C006F4801
:102D20004189ADF81E10C1680891006909906B488F
:102D3000017D05A801756948417D05A84175674871
:102D4000817D05A88175654880690B906348007F87
:102D50008DF8300009A80FC88DE80F0005A80FC82E
:102D6000FDF7CBFB88E759488079302803DB5748CB
:102D70008079392835DD7020FEF71EF95748008824
:102D8000ADF8140055484088ADF816005348406827
:102D9000069052480089ADF81C0050484189ADF8B2
:102DA0001E10C1680891006909904C48017D05A872
:102DB00001754A48417D05A841754848817D05A8AF
:102DC0008175464880690B904448007F8DF830003B
:102DD00009A80FC88DE80F0005A80FC8FDF78DFBE7
:102DE0004AE73A48C079302803DB3848C0793928A7
:102DF00035DD7020FEF7E0F838480088ADF81400A3
:102E000036484088ADF8160034484068069033488C
:102E10000089ADF81C0031484189ADF81E10C16829
:102E20000891006909902D48017D05A801752B487E
:102E3000417D05A841752948817D05A881752748F0
:102E400080690B902548007F8DF8300009A80FC8D5
:102E50008DE80F0005A80FC8FDF74FFB0CE71B48D6
:102E6000C07A302803DB1948C07A392842DD702047
:102E7000FEF7A2F819480088ADF8140017484088FA
:102E8000ADF8160015484068069014480089ADF862
:102E90001C0012484189ADF81E10C16808910069F4
:102EA00009900E48017D05A801750C48417D05A8D3
:102EB00041750A48817D05A88175084880690B9095
:102EC0000648007F8DF8300009A80BE0C80A0020F2
:102ED000A086010054EF020890EF0208EC1A0020CF
:102EE000340000200FC88DE80F0005A80FC8FDF7BB
:102EF00004FBC1E6F748007B302803DBF548007B84
:102F0000392835DD7020FEF757F8F3480088ADF812
:102F10001400F1484088ADF81600EF48406806906C
:102F2000ED480089ADF81C00EB484189ADF81E1052
:102F3000C168089100690990E748017D05A80175FD
:102F4000E548417D05A84175E348817D05A8817567
:102F5000E14880690B90E048007F8DF8300009A8B7
:102F60000FC88DE80F0005A80FC8FDF7C6FA83E665
:102F7000D848407B302803DBD648407B392835DDF4
:102F80007020FEF719F8D4480088ADF81400D24834
:102F90004088ADF81600D04840680690CE480089B9
:102FA000ADF81C00CC484189ADF81E10C1680891ED
:102FB00000690990C848017D05A80175C648417D92
:102FC00005A84175C448817D05A88175C2488069FE
:102FD0000B90C148007F8DF8300009A80FC88DE81C
:102FE0000F0005A80FC8FDF788FA45E6B948807BB1
:102FF000302803DBB748807B392835DD7020FDF7AA
:10300000DBFFB5480088ADF81400B3484088ADF840
:103010001600B14840680690AF480089ADF81C0022
:10302000AD484189ADF81E10C1680891006909904A
:10303000A948017D05A80175A748417D05A84175EE
:10304000A548817D05A88175A34880690B90A24899
:10305000007F8DF8300009A80FC88DE80F0005A883
:103060000FC8FDF74AFA07E69A48C07B302803DB11
:103070009848C07B392835DD7020FDF79DFF9648C4
:103080000088ADF8140094484088ADF816009248C6
:103090004068069090480089ADF81C008E48418930
:1030A000ADF81E10C1680891006909908A48017D39
:1030B00005A801758848417D05A841758648817D30
:1030C00005A88175844880690B908348007F8DF83E
:1030D000300009A80FC88DE80F0005A80FC8FDF73C
:1030E0000CFAC9E57B48C07C302803DB7948C07CFA
:1030F000392835DD7020FDF75FFF77480088ADF88F
:10310000140075484088ADF8160073484068069072
:1031100071480089ADF81C006F484189ADF81E1058
:10312000C1680891006909906B48017D05A8017587
:103130006948417D05A841756748817D05A881756D
:10314000654880690B906448007F8DF8300009A8BD
:103150000FC88DE80F0005A80FC8FDF7CEF98BE565
:103160005C48007D302803DB5A48007D392835DD76
:103170007020FDF721FF58480088ADF8140056482C
:103180004088ADF8160054484068069052480089BF
:10319000ADF81C0050484189ADF81E10C168089177
:1031A000006909904C48017D05A801754A48417D98
:1031B00005A841754848817D05A881754648806904
:1031C0000B904548007F8DF8300009A80FC88DE8A6
:1031D0000F0005A80FC8FDF790F94DE53D48407D6B
:1031E000302803DB3B48407D392835DD7020FDF772
:1031F000E3FE39480088ADF8140037484088ADF840
:10320000160035484068069033480089ADF81C0028
:1032100031484189ADF81E10C168089100690990D4
:103220002D48017D05A801752B48417D05A84175F4
:103230002948817D05A88175274880690B9026481B
:10324000007F8DF8300009A80FC88DE80F0005A891
:103250000FC8FDF752F90FE51E48807D302803DBCB
:103260001C48807D392839DD7020FDF7A5FE1A48FD
:103270000088ADF8140018484088ADF816001648CC
:103280004068069014480089ADF81C001248418936
:10329000ADF81E10C1680891006909900E48017DC3
:1032A00005A801750C48417D05A841750A48817D36
:1032B00005A88175084880690B900748007F8DF844
:1032C000300009A80FC88DE80F0005A80FC8FDF74A
:1032D00014F9D1E4C80A0020EC1A0020FE48C07D91
:1032E000302803DBFC48C07D392835DD7020FDF730
:1032F00063FEFA480088ADF81400F8484088ADF83D
:103300001600F64840680690F4480089ADF81C00A5
:10331000F2484189ADF81E10C16808910069099012
:10332000EE48017D05A80175EC48417D05A8417571
:10333000EA48817D05A88175E84880690B90E748D7
:10334000007F8DF8300009A80FC88DE80F0005A890
:103350000FC8FDF7D2F88FE4DF48007E302803DB8A
:10336000DD48007E392835DD7020FDF725FEDB487D
:103370000088ADF81400D9484088ADF81600D74849
:1033800040680690D5480089ADF81C00D3484189B3
:10339000ADF81E10C168089100690990CF48017D01
:1033A00005A80175CD48417D05A84175CB48817DB3
:1033B00005A88175C94880690B90C848007F8DF8C1
:1033C000300009A80FC88DE80F0005A80FC8FDF749
:1033D00094F851E4C048407E302803DBBE48407E6C
:1033E000392835DD7020FDF7E7FDBC480088ADF8D1
:1033F0001400BA484088ADF81600B84840680690F6
:10340000B6480089ADF81C00B4484189ADF81E10DB
:10341000C168089100690990B048017D05A801754F
:10342000AE48417D05A84175AC48817D05A88175F0
:10343000AA4880690B90A948007F8DF8300009A840
:103440000FC88DE80F0005A80FC8FDF756F813E464
:10345000A14840793038642148439F4989793039FF
:1034600001EB810100EB41019B48C07930380844F1
:1034700084B29948C07A303842F210714843964974
:10348000097B303901EB4102C2EBC11100EBC101F4
:103490009148407B303800EBC00202EB001001EB9A
:1034A00080018D48807B303800EB800001EB4001CB
:1034B0008948C07B3038084485B28748C07C3038A2
:1034C000874941438448007D303840F2712250439F
:1034D00001EB00118048407D303800EB4002C2EB28
:1034E000C01001EBC0017C48807D303800EBC00289
:1034F00002EB001001EB80017748C07D303800EB13
:10350000800001EB40017448007E30380E1814270B
:10351000462C01DC282C03DA6520FDF74DFD17E071
:103520007048806BA84203D36E480068A84203D954
:103530006620FDF741FD0BE06B48006FB04203D2FF
:103540006720FDF739FD03E0644804814581C660CA
:1035500062480088ADF8140060484088ADF8160055
:103560005E48406806905D480089ADF81C005B48E5
:103570004189ADF81E10C16808910069099057484B
:10358000017D05A801755548417D05A84175534841
:10359000817D05A88175514880690B904F48007F57
:1035A0008DF8300009A80FC88DE80F0005A80FC8D6
:1035B000FDF783F800BF13E410B58CB04B480088CA
:1035C00001283AD049480088072836D06F20FDF7F7
:1035D000F3FC42480088ADF8100040484088ADF840
:1035E00012003E48406805903C480089ADF818003C
:1035F0003A484189ADF81A10C168079100690890EE
:103600003648017D04A801753448417D04A8417500
:103610003248817D04A88175304880690A902F481E
:10362000007F8DF82C0008A80FC88DE80F0004A8B3
:103630000FC8FDF770F90CB010BD274880783F28FF
:1036400032D126480088ADF8100024484088ADF8F3
:10365000120022484068059020480089ADF8180003
:103660001E484189ADF81A10C16807910069089099
:103670001A48017D04A801751848417D04A84175C8
:103680001648817D04A88175144880690A90134802
:10369000007F8DF82C0008A80FC88DE80F0004A843
:1036A0000FC8FDF738F9C6E70B488078302803DBF0
:1036B00009488078392842DD7020FDF77DFC0748F5
:1036C0000088ADF8100005484088ADF812000348A6
:1036D0004068059001480BE0C80A0020EC1A002061
:1036E000A086010054EF020890EF02083400002089
:1036F0000089ADF81800FE484189ADF81A10C1687C
:10370000079100690890FA48017D04A80175F848FE
:10371000417D04A84175F648817D04A88175F4486F
:1037200080690A90F248007F8DF82C0008A80FC825
:103730008DE80F0004A80FC8FDF7EDF87BE7ED4812
:1037400080783038C4B2BCB3012C36D06720FDF786
:1037500033FCE7480088ADF81000E5484088ADF834
:103760001200E34840680590E1480089ADF8180070
:10377000DF484189ADF81A10C168079100690890C7
:10378000DB48017D04A80175D948417D04A8417535
:10379000D748817D04A88175D54880690A90D448AE
:1037A000007F8DF82C0008A80FC88DE80F0004A832
:1037B0000FC8FDF7B0F83EE7FFE7CD480477008873
:1037C000ADF81000CA484088ADF81200C8484068FB
:1037D0000590C7480089ADF81800C5484189ADF883
:1037E0001A10C168079100690890C148017D04A8BA
:1037F0000175BF48417D04A84175BD48817D04A87D
:103800008175BB4880690A90B948007F8DF82C000B
:1038100008A80FC88DE80F0004A80FC8FDF77BF8B3
:1038200000BF08E710B58CB0B348008801283AD033
:10383000B1480088072836D06F20FDF7BDFBAC48A3
:103840000088ADF81000AA484088ADF81200A848DA
:1038500040680590A6480089ADF81800A448418941
:10386000ADF81A10C168079100690890A048017D61
:1038700004A801759E48417D04A841759C48817D3E
:1038800004A881759A4880690A909948007F8DF84C
:103890002C0008A80FC88DE80F0004A80FC8FCF77B
:1038A000E0FF0CB010BD934880783F2832D190489B
:1038B0000088ADF810008E484088ADF812008C48A2
:1038C000406805908A480089ADF818008848418909
:1038D000ADF81A10C1680791006908908448017D0D
:1038E00004A801758248417D04A841758048817D06
:1038F00004A881757E4880690A907D48007F8DF814
:103900002C0008A80FC88DE80F0004A80FC8FCF70A
:10391000A8FFC6E777488078302803DB75488078B1
:10392000392835DD7020FDF747FB71480088ADF878
:1039300010006F484088ADF812006D48406805904F
:103940006B480089ADF8180069484189ADF81A1034
:10395000C1680791006908906548017D04A8017558
:103960006348417D04A841756148817D04A8817543
:103970005F4880690A905E48007F8DF82C0008A897
:103980000FC88DE80F0004A80FC8FCF76AFF88E78E
:103990005848C078302803DB5648C078392835DDD0
:1039A0007020FDF709FB52480088ADF81000504820
:1039B0004088ADF812004E48406805904C48008998
:1039C000ADF818004A484189ADF81A10C16807914E
:1039D000006908904648017D04A801754448417D6E
:1039E00004A841754248817D04A8817540488069DA
:1039F0000A903F48007F8DF82C0008A80FC88DE87A
:103A00000F0004A80FC8FCF72CFF4AE739480079DB
:103A1000302803DB37480079392835DD7020FDF781
:103A2000CBFA33480088ADF8100031484088ADF833
:103A300012002F48406805902D480089ADF8180005
:103A40002B484189ADF81A10C168079100690890A8
:103A50002748017D04A801752548417D04A84175CA
:103A60002348817D04A88175214880690A902048F7
:103A7000007F8DF82C0008A80FC88DE80F0004A85F
:103A80000FC8FCF7EEFE0CE71A484079302803DB3C
:103A90001848407939283CDD7020FDF78DFA14482C
:103AA0000088ADF8100012484088ADF812001048A8
:103AB000406805900E480089ADF818000C4841890F
:103AC000ADF81A10C1680791006908900848017D97
:103AD00004A801750648417D04A841750448817D0C
:103AE00004A88175024880690A900148007F05E0BA
:103AF000EC1A0020C80A0020340000208DF82C00A9
:103B000008A80FC88DE80F0004A80FC8FCF7A9FE8D
:103B1000C7E6F9488079302803DBF74880793928EF
:103B200035DD7020FDF748FAF4480088ADF8100044
:103B3000F2484088ADF81200F04840680590EF4820
:103B40000089ADF81800ED484189ADF81A10C16838
:103B5000079100690890E948017D04A80175E748CC
:103B6000417D04A84175E548817D04A88175E3483D
:103B700080690A90E148007F8DF82C0008A80FC8E2
:103B80008DE80F0004A80FC8FCF76BFE89E6DA4841
:103B9000C079302803DBD848C079392835DD70205A
:103BA000FDF70AFAD5480088ADF81000D3484088E0
:103BB000ADF81200D14840680590D0480089ADF8B2
:103BC0001800CE484189ADF81A10C1680791006904
:103BD0000890CA48017D04A80175C848417D04A821
:103BE0004175C648817D04A88175C44880690A90E2
:103BF000C248007F8DF82C0008A80FC88DE80F0080
:103C000004A80FC8FCF72DFE4BE6BB48C07930284E
:103C100003DBB948007A392835DD7020FDF7CCF98F
:103C2000B6480088ADF81000B4484088ADF81200DE
:103C3000B24840680590B1480089ADF81800AF4817
:103C40004189ADF81A10C168079100690890AB4826
:103C5000017D04A80175A948417D04A84175A748C4
:103C6000817D04A88175A54880690A90A348007FDA
:103C70008DF82C0008A80FC88DE80F0004A80FC805
:103C8000FCF7EFFD0DE69C48807830389C494143B5
:103C90009948C078303840F27122504301EB00114E
:103CA00095480079303800EB4002C2EBC01001EBC0
:103CB000C00191484079303800EBC00202EB00109F
:103CC00001EB80018C488079303800EB800001EBFB
:103CD00040018948C07930380C1844F6206084428D
:103CE00035D96720FDF768F984480088ADF81000E1
:103CF00082484088ADF812008048406805907F48AF
:103D00000089ADF818007D484189ADF81A10C168E6
:103D10000791006908907948017D04A801757748EA
:103D2000417D04A841757548817D04A8817573485B
:103D300080690A907148007F8DF82C0008A80FC890
:103D40008DE80F0004A80FC8FCF78BFDA9E56B48B0
:103D500084610088ADF8100068484088ADF8120012
:103D600066484068059065480089ADF818006348CA
:103D70004189ADF81A10C1680791006908905F4841
:103D8000017D04A801755D48417D04A841755B482B
:103D9000817D04A88175594880690A905748007F41
:103DA0008DF82C0008A80FC88DE80F0004A80FC8D4
:103DB000FCF757FD00BF74E5704770478AB00020DC
:103DC00001E00120401C0A28FBDB009901910AB0A8
:103DD000704770B54B48048846254B48008810B999
:103DE000462D01DD00E0502546480088A84203DC4E
:103DF00044480088282814DA42480088A84201DD97
:103E0000404805803F480088282802DA28203D499C
:103E100008806520FDF7D0F83A480088FCF7EBFEF3
:103E200070BD3A480088022803D16F20FDF7C4F81E
:103E3000F6E7314880783F2804D132480088FCF703
:103E4000DAFEEDE72C4880782B2809D12A48C07883
:103E50002B2802D1601D84B242E0601C84B23FE096
:103E6000254880782D2809D12348C0782D2802D1F3
:103E7000601F84B234E0601E84B231E01E48807856
:103E8000302825DB1C488078392821DC1A48C07886
:103E900030281DDB1848C078392819DC164800790D
:103EA000302815DB14480079392811DC1248807855
:103EB0003038642148431049C978303901EB810119
:103EC00000EB41010C4800793038084484B207E027
:103ED0006E20FDF771F80B480088FCF78CFE9FE719
:103EE000282C01DBAC4213DD6520FDF765F80548A1
:103EF0000088FCF780FE93E7C80A0020EC1A002037
:103F0000A0860100A0000020C60000203400002090
:103F1000FE4804800088FE490880FC480088FCF7C1
:103F20006AFE00BF7CE72DE9F041FA4800880E28C0
:103F300005DCF948806BF949098888420FD20E20C8
:103F4000F4490880F448008FF44908806620FDF7A2
:103F500033F8F2480088FCF780FEBDE8F081ED48B8
:103F6000008804B2EE4880783F2804D1EB480088EE
:103F7000FCF773FEF1E7EB480088022803D16F20BD
:103F8000FDF71AF8E9E7E64880782B2820D1E248C7
:103F9000806BE2490988884207D86620FDF70CF853
:103FA000DE480088FCF759FED7E7DD48C0782B28AB
:103FB00002D1601D04B201E0601C04B20E2C01DCD1
:103FC000204600E00E200446D34850F824508AE0F2
:103FD000D34880782D2820D1CF480068CF49098860
:103FE000884207D36620FCF7E7FFCC480088FCF73F
:103FF00034FEB2E7CA48C0782D2802D1601F04B24F
:1040000001E0601E04B2002C01DB204600E000202D
:104010000446C14850F8245065E0C14880783028F3
:1040200059DBBF488078392855DCBD48C078302836
:1040300051DBBB48C07839284DDCB94800793028BD
:1040400049DBB7480079392845DCB5484079302844
:1040500041DBB348407939283DDCB14880793028CC
:1040600039DBAF488079392835DCAD488078303885
:1040700042F210714843AA49C978303901EB410234
:10408000C2EBC11100EBC101A5480079303800EB4B
:10409000C00202EB001001EB8001A14840793038EA
:1040A00000EB800001EB40019D48807930380D180D
:1040B0009948806BA84207D26620FCF77DFF97489D
:1040C0000088FCF7CAFD48E70F2293492846FDF710
:1040D00022FA04B207E06F20FCF76EFF8F480088D9
:1040E000FCF7BBFD39E764261427B54201D8BD4271
:1040F00007D26620FCF760FF88480088FCF7ADFD1A
:104100002BE784490C8085490D8008460088FCF720
:10411000A4FD00BF21E782488078302806D1002026
:10412000814908800120814908800CE07C48807822
:10413000312803D07A488078322804D101207A4986
:1041400008807A490880704775488078302806D101
:1041500000207749088001207649088008E07048EF
:104160008078312804D10120714908807149088084
:1041700070471CB5044643208DF8000041208DF89F
:10418000010004F13000C0B28DF8020003208DF868
:10419000030004216846FCF72FF88DF80400052180
:1041A0006846FCF747F81CBD10B55E480088022839
:1041B00018D05C480088032814D05A480088042886
:1041C00010D057488078302803D100205A49088001
:1041D00008E053488078312803D1012056490880EF
:1041E00000E000BF54480088FFF7C3FF10BD10B5C2
:1041F0005248C07853280CD150480079542808D12F
:104200004E4840795D2804D1012001F0D4FF01F02F
:10421000D7FF10BD1FB54AA41DCC8DE81D0000219D
:104220002AE01DF801003F280AD13D48405C3028B3
:1042300003DB3B48405C39281CDD002004B010BD86
:104240001DF8010023280DD13548405C2B2811D0E2
:104250003348405C2D280DD03148405C402809D0BF
:104260000020EBE72E48405C1DF80120904201D071
:104270000020E3E7481C81B21029D2DB0120DDE7F2
:104280001FB54B208DF8000056208DF801001F4807
:104290000088642190FBF1F03030C0B28DF802004C
:1042A0001A4800880A2190FBF1F090FBF1F201FB23
:1042B00012003030C0B28DF803001448008890FB23
:1042C000F1F201FB12003030C0B28DF80400202062
:1042D0008DF805004D208DF8060041208DF807006F
:1042E0000E48008842F2107190FBF1F03030C0B2FD
:1042F0008DF80800094800884FF47A7190FBF1F0BE
:104300000A2190FBF1F201FB120021E0A000002045
:104310006C000020AA00002054EF0208A200002038
:10432000C80A0020340000203C0000203A00002091
:10433000400000203E000020420000204C300020C1
:104340004B4D204B563F3F3F204D413F3F3F3F3F6E
:104350003030C0B28DF80900FE480088642190FB1F
:10436000F1F00A2190FBF1F201FB12003030C0B2F3
:104370008DF80A00F748008890FBF1F090FBF1F20D
:1043800001FB12003030C0B28DF80B00F1480088FC
:1043900090FBF1F201FB12003030C0B28DF80C003E
:1043A00020208DF80D0003208DF80E000F216846A7
:1043B000FBF722FF8DF80F0010216846FBF73AFF4C
:1043C0001FBD1CB5044654208DF800004D208DF80B
:1043D000010004F13000C0B28DF8020003208DF816
:1043E000030004216846FBF707FF8DF80400052150
:1043F0006846FBF71FFF1CBD10B500242046FFF7E1
:10440000E0FF10BD70473EB504464D208DF800001A
:1044100043208DF8010042F21070B4FBF0F0303010
:10442000C0B28DF802004FF47A70B4FBF0F00A21AC
:10443000B0FBF1F201FB120030308DF80300642074
:10444000B4FBF0F0B0FBF1F201FB120030308DF85C
:1044500004000A20B4FBF0F0B0FBF1F201FB120003
:1044600030308DF805000A20B4FBF0F100FB11405C
:1044700030308DF8060003208DF8070008216846CB
:10448000FBF7BAFE8DF8080009216846FBF7D2FE5B
:104490003EBD10B5B04880783F2803D1AF480068D2
:1044A000FFF7B1FF10BD3EB5044643208DF8000074
:1044B0004D208DF801000A20B4FBF0F100FB114003
:1044C00030308DF8020003208DF803000421684687
:1044D000FBF792FE8DF8040005216846FBF7AAFE63
:1044E0003EBD10B59E48008802281ED09C4800881A
:1044F00003281AD09A480088042816D09648807855
:10450000312806D10120FFF7CEFF0220954908800F
:104510000BE091488078302807D10020FFF7C3FFD7
:104520000020904908809049086010BD0EB58C4865
:10453000008802285DD08A480088032859D088481E
:104540000088042855D049208DF8000054208DF8AB
:1045500001008648008842F2107190FBF1F00A21B8
:1045600090FBF1F201FB12003030C0B28DF8020076
:104570007E4800884FF47A7190FBF1F00A2190FB9D
:10458000F1F201FB12003030C0B28DF80300774821
:104590000088642190FBF1F00A2190FBF1F201FB0D
:1045A00012003030C0B28DF804007048008890FBD3
:1045B000F1F090FBF1F201FB12003030C0B28DF847
:1045C00005006A48008890FBF1F201FB12003030D0
:1045D000C0B28DF8060003208DF807000821684658
:1045E000FBF70AFE8DF8080009216846FBF722FE5A
:1045F00000BF0EBD3EB5044646208DF800004320A6
:104600008DF8010042F21070B4FBF0F03030C0B20F
:104610008DF802004FF47A70B4FBF0F00A21B0FB81
:10462000F1F201FB120030308DF803006420B4FB7E
:10463000F0F0B0FBF1F201FB120030308DF8040015
:104640000A20B4FBF0F0B0FBF1F201FB12003030B5
:104650008DF805000A20B4FBF0F100FB114030306A
:104660008DF8060003208DF8070008216846FBF747
:10467000C3FD8DF8080009216846FBF7DBFD3EBD50
:104680003EB504464C208DF8000046208DF8010010
:1046900042F21070B4FBF0F03030C0B28DF802007E
:1046A0004FF47A70B4FBF0F00A21B0FBF1F201FB99
:1046B000120030308DF803006420B4FBF0F0B0FB42
:1046C000F1F201FB120030308DF804000A20B4FB37
:1046D000F0F0B0FBF1F201FB120030308DF8050074
:1046E0000A20B4FBF0F100FB114030308DF80600D9
:1046F00003208DF8070008216846FBF77DFD8DF843
:10470000080009216846FBF795FD3EBD3EB504460D
:104710004F208DF8000054208DF8010013480088C8
:104720004FF47A7190FBF1F00A2190FBF1F201FB5A
:1047300012003030C0B28DF802000C4800886421AD
:1047400090FBF1F00A2190FBF1F201FB12003030F6
:10475000C0B20DE0A2000020C80A002044000020E2
:10476000340000205E000020480000206A00002085
:104770008DF80300FE48008890FBF1F090FBF1F209
:1047800001FB12003030C0B28DF80400F8480088F8
:1047900090FBF1F201FB12003030C0B28DF8050041
:1047A00003208DF8060007216846FBF725FD8DF8EC
:1047B000070008216846FBF73DFD3EBD10B5ED48FA
:1047C0000088022807D0EB480088032803D0E94876
:1047D0000088042800D110BDE74880783F284DD0DC
:1047E000E5488078302849DBE3488078392845DC83
:1047F000E148C078302841DBDF48C07839283DDC0B
:10480000DD480079302839DBDB480079392835DC90
:10481000D9484079302831DBD748407939282DDC18
:10482000D5488079302829DBD3488079392825DCA0
:10483000D1498978303942F210725143CE4AD27848
:10484000303A02EB4203C3EBC21201EBC202CA4987
:104850000979303901EBC10303EB011102EB81024D
:10486000C5494979303901EB810102EB4102C24966
:10487000897930395018C149086000BFBF480068C5
:10488000FFF7B8FE00BFA6E710B5BA4800880228B7
:1048900007D0B8480088032803D0B6480088042809
:1048A00000D110BDB6480068FFF7EAFE00BFF8E788
:1048B00010B5B048008802280FD0AE480088032801
:1048C0000BD0AC480088042807D0AB4880783F283C
:1048D00003D1A7480088FFF719FF10BD7047A6480D
:1048E0008078303864214843A349C978303901EBD6
:1048F000810100EB4101A048007930380844A1490A
:1049000008807047A048C07800F00F019E48C0782A
:10491000001101EB00109B490880704710B594B05E
:104920004C229A4901A809F0F5FC00242AE001A8CC
:10493000005D3F280AD19048005D302803DB8E4897
:10494000005D39281CDD002014B010BD01A8005DF9
:1049500023280DD18848005D2B2811D08648005DA2
:104960002D280DD08448005D402809D00020EBE7B9
:104970008148005D01A9095D884201D00020E3E77C
:10498000601C84B2492CD2DB0120DDE708B552203F
:104990008DF8000045208DF8010003208DF80200FD
:1049A00003216846FBF728FC8DF8030004216846C4
:1049B000FBF740FC08BD3EB5044644208DF80000DE
:1049C00055208DF801000A20B4FBF0F100FB1140E6
:1049D00030308DF8020003208DF803000421684672
:1049E000FBF70AFC8DF8040005216846FBF722FC62
:1049F0003EBD08B547208DF8000045208DF8010028
:104A000003208DF8020003216846FBF7F5FB8DF8C3
:104A1000030004216846FBF70DFC08BD10B555489E
:104A2000008802280AD053480088032806D051483D
:104A30000088042802D0002055490880FFF7D9FFDC
:104A400010BD88B01422534901A809F063FC01206D
:104A500008F0D1FF122201A94FF4C24002F0E1FE9A
:104A600052208DF8180042208DF819004F208DF843
:104A70001A008DF81B0003208DF81C00052106A8E4
:104A8000FBF7BAFB8DF81D00062106A8FBF7D2FB49
:104A9000142008F094FF012001F08DFB01F090FB41
:104AA0001CB548208DF800008DF8010030208DF8ED
:104AB00002008DF803008DF8040003208DF8050036
:104AC00006216846FBF798FB8DF80600072168462B
:104AD000FBF7B0FB1CBDF0B50346002002F52F75B7
:104AE0006D1A4FF42F7695FBF6F706FB17556D1CE4
:104AF000ACB20AE05D5C0544E8B24D1C4FF42F7681
:104B000095FBF6F706FB1755A9B2251EA4F1010681
:104B1000B4B2EFDCC0B2F0BD10B502460B460020C7
:104B2000002104E0545C0444E0B24C1CA1B2994260
:104B3000F8DBC0B210BD0EB550208DF800004E203D
:104B40008DF80100144800788DF802001248407872
:104B50008DF80300104880788DF804000E48C07866
:104B60008DF805000C4800798DF806000A4815E01C
:104B70006A00002034000020C80A002048000020FD
:104B80004C000020520000204C30002008F10208A8
:104B90005E00002030EF020844EF020840798DF8F3
:104BA0000700FE4880798DF80800FC48C0798DF830
:104BB000090003208DF80A000B216846FBF71CFB57
:104BC0008DF80B000C216846FBF734FB0EBD7047D7
:104BD00001464A880B884B800A8070472DE9FF41C7
:104BE000EF4890F804800024B8F1000F10D1ED4890
:104BF000D0F848170191B0F84C07ADF8080003A8A9
:104C0000FFF7E6FF02A8FFF7E3FF0C2501AF18E06E
:104C1000B8F1010F10D1E44908684968CDE90001F5
:104C20006846FFF7D5FF03A8FFF7D2FF02A8FFF7FA
:104C3000CFFF10256F4604E07020FCF7BDF9BDE8FA
:104C4000FF8101222046611C8CB2D8490A542922D6
:104C50002046611C8CB2D5490A54681CC0F3072257
:104C60002046611C8CB2D1490A54681CC2B220464D
:104C7000611C8CB2CD490A542046611C8CB2CB49D0
:104C800001F80080002610E037F8160002122046D6
:104C9000611C8CB2C5490A5417F816202046611CC5
:104CA0008CB2C2490A54701C86B205EBD571B6EBC2
:104CB000610FE9DB03222046611C8CB2BB490A5418
:104CC000A81D81B2B948FBF797FA2146621C94B23D
:104CD000B64A5054E81D81B21046FBF7ABFA00BF4C
:104CE000ADE77CB50546002401222146641C0DF881
:104CF00001202146641C0DF8015000222146641C4D
:104D00000DF8012001222146641C0DF80120062225
:104D10002146641C0DF8012003222146641C0DF875
:104D2000012006216846FBF767FA2246641C0DF84D
:104D3000020007216846FBF77DFA7CBD2DE9F041B2
:104D400040F25F2600249648077901222146641C20
:104D50009648425427222146641C4254321221466E
:104D6000641C42542146641C46542146641C47542A
:104D7000012F2AD18B48B0F85E0202122046611C36
:104D80008CB28A490A548748B0F85E02C2B2204603
:104D9000611C8CB285490A5400250FE0844931F822
:104DA000150003122146621C94B2804A53542146D6
:104DB000621C94B27D4A5054681C85B2F01E00EB10
:104DC000D071B5EB610FE9DB28E07648008802126C
:104DD0002046611C8CB275490A5472480088C2B2E0
:104DE0002046611C8CB271490A54002510E06D49BF
:104DF000891C31F8150003122146621C94B26B4ADB
:104E000053542146621C94B2684A5054681C85B2BF
:104E1000F01E00EBD071B5EB610FE8DB03222046FA
:104E2000611C8CB261490A54701D81B25F48FBF766
:104E3000E3F92146621C94B25C4A5054B01D81B221
:104E40001046FBF7F7F92120FFF74BFFBDE8F08193
:104E5000F0B51446002200BF11E00F4601F1010C2D
:104E60001FFA8CF1C55D0F4601F1010C1FFA8CF1A0
:104E7000C65D46EA052724F81270571CBAB29A425A
:104E8000EBDBF0BD10B510234A4A04214448FFF77C
:104E9000DFFF1021474803F046FF2520FFF721FFE1
:104EA00010BD70B50024502501222146641C3F48E6
:104EB000425431222146641C42542A122146641C69
:104EC00042542146641C455400260FE03A4931F80B
:104ED000160003122146621C94B2344A53542146F0
:104EE000621C94B2314A5054701C86B205EBD571E5
:104EF000B6EB610FEADB03222046611C8CB22B4922
:104F00000A54681D81B22948FBF776F92146621CD4
:104F100094B2264A5054A81D81B21046FBF78AF974
:104F200070BD70B50024202501222146641C1F4855
:104F3000425424222146641C42542A122146641CF5
:104F400042542146641C455400260FE0194931F8AB
:104F5000160003122146621C94B2144A535421468F
:104F6000621C94B2114A5054701C86B205EBD57184
:104F7000B6EB610FEADB03222046611C8CB20B49C1
:104F80000A54681D81B20948FBF736F92146621CB4
:104F900094B2064A5054A81D81B20FE044EF0208B3
:104FA000B407002080130020900A00203C0200205B
:104FB000E015002010130020A00A00201046FBF787
:104FC00039F970BD10B50823FA4A0421FA48FFF7F1
:104FD0003FFF1021F74803F0A6FE2320FFF781FED4
:104FE00010BD70B50024102501222146641CF34831
:104FF000425422222146641C42542A122146641C37
:1050000042542146641C455400260FE0E94931F81A
:10501000160003122146621C94B2E84A53542146FA
:10502000621C94B2E54A5054701C86B205EBD571EF
:10503000B6EB610FEADB03222046611C8CB2DF492C
:105040000A54681D81B2DD48FBF7D6F82146621C80
:1050500094B2DA4A5054A81D81B21046FBF7EAF820
:1050600070BD2DE9F04F87B0D54D4FF01E0BCDF838
:1050700018B04E200590D048C078CF49897840EAD2
:105080002120049000200090019002900390DFF80E
:10509000289309F10409CB48008828B93A20FBF786
:1050A0008BFF07B0BDE8F08FDDE90410884203D024
:1050B0006E20FBF781FFF4E708236A460421BE480F
:1050C000FFF7C6FE99F8106099F811A0042E03DAD4
:1050D00034460027B84603E0301F84B20127B846A3
:1050E000042C02DABAF1010F03DD6E20FBF764FF36
:1050F000D7E710226946284609F00CF905F110009F
:1051000000EBC80020F814A067B9C4EB041105F146
:10511000200000EB8102002109F11200069BFFF73D
:1051200097FE0BE0C4EB041105F5887000EB8102DB
:10513000002109F11200069BFFF78AFE1021284684
:1051400003F0F1FD05F1100101EBC80101EB440092
:10515000022103F0E8FD4FB9C4EB041205F1200170
:1051600001EB82003C2103F0DEFD08E0C4EB0412F9
:1051700005F5887101EB82003C2103F0D4FD21206C
:10518000FFF7AFFD00BF8CE7F0B505460E460021E6
:1051900000BF0EE035F811404FEA242C18465F1C82
:1051A000BBB202F800C018465F1CBBB21454481CC6
:1051B00081B2B142EEDB1846F0BD2DE9FC5FDFF8AD
:1051C00000A200241E2001904E2000907A4806790B
:1051D000DFF8E89109F104097A48008820B93A20FB
:1051E000FBF7EAFEBDE8FC9F4E21484609F0ABF80C
:1051F000042E08DAB0464FF0000B0AF110004646C4
:1052000030F8167008E0301F1FFA80F84FF0010BDD
:105210000AF1180030F818700D2E01DD012000E0B1
:105220000020012F01DD012100E00021084318B119
:105230006E20FBF7C1FED5E701222046611C8CB22F
:105240005E490A5420222046611C8CB25B490A54F4
:10525000009802122046611C8CB258490A540098EA
:10526000C2B22046611C8CB254490A5400234A46FB
:1052700008215046FFF788FF0546601984B289F877
:10528000106089F81170A01C84B2012F24D1BBF1E9
:10529000000F06D1C8EB08124949203101EB82000A
:1052A00004E0C8EB0812484901EB820000250FE03A
:1052B00001880B122146621C94B2404A5354037871
:1052C0002146621C94B23D4A5354801C691C8DB225
:1052D00001998D42ECDB12E08FB900250CE0002231
:1052E0002046611C8CB235490A542046611C8CB2A0
:1052F00032490A54681C85B201988542EFDB0322CB
:105300002046611C8CB22D490A5453212B48FAF7D0
:1053100073FF2146621C94B2284A5054542110460F
:10532000FAF788FF00BF5DE770B523480579447937
:10533000022C03DD7020FBF73FFE70BD05EB8500FE
:10534000C0EBC5112048F03000EB410004EBC40174
:1053500001EB441100EB4102522306211648FFF7EE
:1053600077FD05EB8501C1EBC5121749F03101EB63
:10537000420104EBC40202EB441201EB4200522151
:1053800003F0D1FC1520FFF7ACFC00BFD5E72DE9F9
:10539000F047002400260027074890F8049090F872
:1053A0000580B8F1020F11DD7020FBF705FEBDE8A6
:1053B000F0870000F0120020B40700203C0200201B
:1053C000E80E002038000020F80F0020A427BE1CA3
:1053D00001222046611C8CB2FE490A541422204648
:1053E000611C8CB2FB490A5432122046611C8CB2FB
:1053F000F8490A542046611C8CB2F6490E542046E6
:10540000611C8CB2F34901F800902046611C8CB2FB
:10541000F04901F8008000251BE009EB8901C1EB90
:10542000C912ED4901EB420108EBC80202EB481238
:1054300001EB420131F8150003122146621C94B2BF
:10544000E44A53542146621C94B2E24A5054681C08
:1054500085B207EBD771B5EB610FDEDB0322204687
:10546000611C8CB2DB490A54701D81B2D948FAF72D
:10547000C3FE2146621C94B2D64A5054B01D81B27C
:105480001046FAF7D7FE00BF91E710B5B423D34A10
:105490000421D348FFF7DCFC4FF4B471CF4803F08C
:1054A00042FC3220CF4908800320CF4908800E20DB
:1054B000CE4908800020CE490880FCF736F911203B
:1054C000FFF70FFC10BD70B500244FF4B475012236
:1054D0002146641CBF48425410222146641C425499
:1054E0002A122146641C42542146641C455400265D
:1054F0000FE0BA4931F8160003122146621C94B23B
:10550000B44A53542146621C94B2B24A5054701C9F
:1055100086B205EBD571B6EB610FEADB03222046BC
:10552000611C8CB2AB490A54681D81B2A948FAF7D4
:1055300063FE2146621C94B2A64A5054A81D81B253
:105540001046FAF777FE70BD2DE9F041A448407986
:10555000A349097900EB012084B2A148C079A04990
:10556000897900EB012087B29D48407A9C49097AED
:1055700000EB012085B29A48C07A9949897A00EBFC
:10558000012086B29B48A0F87042A0F87272B0F871
:105590007002994908809748A0F87452A0F8766282
:1055A00096480088FBF738FC95480088FBF755FBC8
:1055B00094480068FBF7DDFB08218848083803F0B1
:1055C000B2FB0920FFF78DFBBDE8F08170B5002428
:1055D000082501222146641C7E48425408222146A7
:1055E000641C42542A122146641C42542146641C05
:1055F0004554002610E07949083931F816000312A5
:105600002146621C94B2734A53542146621C94B2E0
:10561000704A5054701C86B205EBD571B6EB610F21
:10562000E9DB03222046611C8CB26A490A54681DDA
:1056300081B26848FAF7E0FD2146621C94B2654ADF
:105640005054A81D81B21046FAF7F4FD70BD2DE943
:10565000F047002504244FF0020A6B480088032815
:105660000BD169480088694908804FF41C71614872
:1056700003F059FB0120664908806548008820B97D
:105680003A20FBF799FCBDE8F0874FF49C73594A28
:1056900004215348FFF7DCFB564840305549401A77
:1056A0004010042101EB400084B2002522E0204696
:1056B000611C8CB24A490E5C2046611C8CB2484980
:1056C0000F5C2046611C8CB2454911F800802046D1
:1056D000611C8CB2424911F80090300640EA074044
:1056E00040EA082040EA09004249403141F82500DB
:1056F000681C85B25545DADB4FF41C713D4803F058
:1057000012FB3C48B0F83202282803DA2821394835
:10571000A0F832123748B0F832023249098888427C
:1057200008DA3448B0F832022E490880084600886A
:10573000FBF761FA2F48B0F8600040F6AC518842A0
:1057400003DD08462B49A1F860002A48B0F824027E
:10575000304908800720FFF7C4FA00BF93E72DE91E
:10576000F04100244FF41C764FF00208002701227C
:105770002146641C1748425406222146641C4254A8
:1057800032122146641C42542146641C46540025B2
:105790000FE0184931F8150003122146621C94B23B
:1057A0000C4A53542146621C94B20A4A5054681C55
:1057B00085B206EBD671B5EB610FEADB27460D48E3
:1057C00040300C49401A4010042101EB400084B2E3
:1057D00000253FE03C020020E8100020800D002062
:1057E000B40700206C0000206E0000207000002034
:1057F00072000020080B002096000020A800002066
:10580000A2000020A4000020500000205200002030
:1058100038000020B0000020FC4951F82500010E9E
:105820002246631C9CB2FA4B9954C0F307432146AD
:10583000621C94B2F64A5354C0F307232146621CFB
:1058400094B2F34A53542146621C94B2F04A505425
:10585000681C85B24545DFDB3C4603212746601CBA
:1058600084B2EB48C155701D81B2E948FAF7C4FC17
:105870002146621C94B2E64A5054B01D81B21046D3
:10588000FAF7D8FCBDE8F08170B5E248008818B995
:105890003A20FBF791FB70BDDF4800790006DE4936
:1058A000497900EB0140DC49897900EB0120DA49B4
:1058B000C9794518D848007A0006D749497A00EBDB
:1058C0000140D549897A00EB0120D349C97A4418AF
:1058D000D248056044602819D049C8600520FFF708
:1058E00000FA00BFD7E770B5002420250122214629
:1058F000641CC748425404222146641C42542A12A4
:105900002146641C42542146641C455400261DE077
:10591000C24951F82600010E2246631C9CB2BC4BC2
:105920009954C0F307432146621C94B2B84A5354B9
:10593000C0F307232146621C94B2B54A5354214652
:10594000621C94B2B24A5054701C86B2E91705EB3F
:105950009171B6EBA10FDBDB03222046611C8CB2F8
:10596000AB490A54681D81B2A948FAF745FC2146A3
:10597000621C94B2A64A5054A81D81B21046FAF790
:1059800059FC70BD70472DE9F047A3484079A24902
:10599000097900EB012084B29F488579C679077A9E
:1059A00090F8098090F80A90012D14DB0C2D12DC80
:1059B000B4F57A7F0FDB40F6B83084420BDC012E61
:1059C00009DB1F2E07DC172F05DCB8F13B0F02DCCB
:1059D000B9F13B0F04DD6E20FBF7EEFABDE8F0876E
:1059E0000220FFF77EF900BFF8E73EB50024072547
:1059F00001222146641C864842542146641C4254BC
:105A00002A122146641C42542146641C4554BDF8A8
:105A10000200020A2146641C7D484254BDF802007F
:105A2000C2B22146641C7A484254BDF80000C2B29A
:105A30002146641C76484254BDF80400C2B2214697
:105A4000641C73484254BDF80600C2B22146641C6F
:105A50006F484254BDF80800C2B22146641C6C482D
:105A60004254BDF80A00C2B22146641C6848425440
:105A700003222146641C4254691DFAF7BDFB01460E
:105A80002246641C62488154A91DFAF7D3FB3EBD2F
:105A900010B561484178007801EB002084B2B4F57C
:105AA0008A7F52D00EDCA4F2011011286ED2DFE8FA
:105AB00000F02A2D303336393C3F426D6D6D6D6DEF
:105AC0006D454900B4F5927F51D011DC40F22111AF
:105AD000A4EB01008C4241D005DCA4F2151080B388
